:020000040000FA
:100000000A128A11FC2F00308A000408840A820731
:1000100000344C3449344734483454342D342D346E
:1000200000344434413452344B342D342D340034B4
:10091A0000300A128A11C0240A128A1101300A12FE
:10092A008A11C0240A128A110800831203131F179E
:10093A009F131F14831603139F171F131F109F1053
:10094A001F119F1108007618AB2CAF2C83120313CA
:10095A001716B22C83120313171297127708F9008D
:10096A007608F8000310F90CF80C0310F90CF80CCF
:10097A00780895000800F3008312031386107308A1
:10098A000A128A11DA240A128A118312031306152B
:10099A001A30F200F830F100F10BD12CF20BD12C05
:1009AA0000008312031306110800F000701CDE2CED
:1009BA00DF2CE32C831203130816E62C831203138D
:1009CA000812F01CE92CEA2CEC2C8816ED2C881263
:1009DA00701DF02CF12CF32C0817F42C0813F01DC1
:1009EA00F72CF82CFA2C8817FB2C88130800F70030
:1009FA00F501F601132D7508770784000A128A118A
:100A0A0003200A128A110A128A11E2250A128A118D
:100A1A000130F5070318F60A0030F607750877075C
:100A2A0084000A128A1103200A128A11003A031D4D
:100A3A001F2D202D002D080083120313171597155B
:100A4A00831603130711372D831203131210921002
:100A5A00472D8312031312149210472D8312031386
:100A6A009210472D0030003A03193C2D472D0430CF
:100A7A00013A0319292D053A03192E2D143A03199F
:100A8A00332D472D83121215F93083160313920062
:100A9A0008000530F0000030F1007A08F300790808
:100AAA00F2000A128A111A270A128A11710883128D
:100ABA000313A1007008A000652D632D642D0000AA
:100ACA00831203132108FC00A003200AFB00031968
:100ADA00A1037C08803AFF0080307F02031D772D36
:100AEA0001307B0203187A2D7B2D622D0800952D8B
:100AFA008312031386152308FA002208F9000A1242
:100B0A008A114E250A128A118312031386112508A7
:100B1A00FA002408F9000A128A114E250A128A11CB
:100B2A00831203132708A900A603260AA80003199B
:100B3A00A7032908803AFF0080307F02031DA72DF2
:100B4A00013028020318AA2DAB2D7D2D080083162B
:100B5A00031388018601F93087000A128A11BC261C
:100B6A000A128A110A128A119A240A128A110A127C
:100B7A008A1121250A128A1100300A128A111B26AB
:100B8A000A128A11700983120313AD007109AE00AB
:100B9A00AD0A0319AE0A2D08F6002E08F7000A124C
:100BAA008A11A8240A128A110A128A1181270A12A2
:100BBA008A11C12D0A128A110028F40074080F390B
:100BCA00F1007108F2007408F039F1007108F300BD
:100BDA008312031386147308F10004300310F10C16
:100BEA00FF3E031DF32D71080A128A11DA240A1234
:100BFA008A118312031306154230F100F10B032EFA
:100C0A00000083120313061172080A128A11DA24E9
:100C1A000A128A118312031306154230F100F10BEE
:100C2A00142E00008312031306110800F500083081
:100C3A007502031C212E222E252EF001F101692EA8
:100C4A007518282E2C2E831203139F152F2E83120C
:100C5A0003139F117508F20001300310F20CFF3ED6
:100C6A00031D322E72183A2E3E2E831203131F16BC
:100C7A00412E831203131F127508F200023003106B
:100C8A00F20CFF3E031D442E72184C2E502E831276
:100C9A0003139F16532E831203139F122930F20057
:100CAA00F20B552E0000831203131F151F195E2E17
:100CBA005F2E5B2E1E08F400831603131E08F30032
:100CCA007408F1007308F0000800F7007703031DA9
:100CDA006F2E702E932E74087F3EF5007508FA0069
:100CEA007A08F50004300310F50CFF3E031D782E38
:100CFA007508F6007608F8007A080F39F5007508C5
:100D0A00F90078080A128A11C0240A128A1179088D
:100D1A000A128A11C0240A128A11BB2E02307706DF
:100D2A00031D982E992EBB2E7408BF3EF500750838
:100D3A00FA007A08F50004300310F50CFF3E031D93
:100D4A00A12E7508F6007608F8007A080F39F50022
:100D5A007508F90078080A128A11C0240A128A1141
:100D6A0079080A128A11C0240A128A11080000306E
:100D7A000A128A11DA240A128A118230F500DD3049
:100D8A00F400F40BC62EF50BC62ECB2E03300A1236
:100D9A008A11C0240A128A112130F5007630F40033
:100DAA00F40BD52EF50BD52E000003300A128A114A
:100DBA00C0240A128A114830F5006C30F400F40B92
:100DCA00E42EF50BE42E000003300A128A11C02427
:100DDA000A128A1102300A128A11C0240A128A11CE
:100DEA0002300A128A11C0240A128A1108300A1221
:100DFA008A11C0240A128A1100300A128A11C024E8
:100E0A000A128A110C300A128A11C0240A128A1193
:100E1A0000300A128A11C0240A128A1106300A12F4
:100E2A008A11C0240A128A110800F601F11F1E2F26
:100E3A001F2F262FF009F109F00A0319F10AF6010A
:100E4A00F60AF31F292F2A2F332FF209F309F20A80
:100E5A000319F30A0130F4007408F606F701F801E1
:100E6A007008710403193A2F3B2F722FF501F50A06
:100E7A00492F01300310F00DF10DFF3E031D3F2FE6
:100E8A000130F4007408F507F11F4C2F4D2F3E2F47
:100E9A0001300310F70DF80DFF3E031D4E2F7108A8
:100EAA007302031D5A2F70087202031C5D2F5E2FF6
:100EBA00652F7008F2027108031CF303F30277141A
:100ECA0001300310F10CF00CFF3E031D662F0130B8
:100EDA00F502031D712F722F4D2F76080319762FF5
:100EEA00772F7C2FF709F809F70A0319F80A780807
:100EFA00F1007708F000080000300A128A111B2658
:100F0A000A128A1101307102F53003197002031CAA
:100F1A008F2F902FC62F2C3083120313A20001307B
:100F2A00A3003830A4004A30A5003C30A6000030A7
:100F3A00A7000A128A117C250A128A111A30831212
:100F4A000313AC005E30AB006D30AA00AA0BAB2FC6
:100F5A00AB0BAB2FAC0BAB2FB22F0A128A118D241D
:100F6A000A128A11F401F40A01300A128A116A2655
:100F7A000A128A1101300A128A11FC240A128A11F1
:100F8A00FB2F983083120313A2000830A3003830D5
:100F9A00A4004A30A5003C30A6000030A7000A127F
:100FAA008A117C250A128A111A3083120313AC00A3
:100FBA005E30AB006D30AA00AA0BE12FAB0BE12F1C
:100FCA00AC0BE12FE82F0A128A118D240A128A111A
:100FDA00F401F40A01300A128A116A260A128A11E5
:100FEA0009300A128A11FC240A128A1108008301A4
:060FFA000A128A11AC2D61
:02400E00723FFF
:00000001FF
